{
  "contractName": "Tiktok",
  "abi": [
    {
      "anonymous": false,
      "inputs": [
        {
          "indexed": false,
          "internalType": "uint256",
          "name": "id",
          "type": "uint256"
        },
        {
          "indexed": false,
          "internalType": "string",
          "name": "caption",
          "type": "string"
        },
        {
          "indexed": false,
          "internalType": "string",
          "name": "url",
          "type": "string"
        },
        {
          "indexed": false,
          "internalType": "uint256",
          "name": "likes",
          "type": "uint256"
        },
        {
          "indexed": false,
          "internalType": "uint256",
          "name": "dislikes",
          "type": "uint256"
        },
        {
          "indexed": false,
          "internalType": "address",
          "name": "owner",
          "type": "address"
        }
      ],
      "name": "VideoCreated",
      "type": "event"
    },
    {
      "anonymous": false,
      "inputs": [
        {
          "indexed": false,
          "internalType": "uint256",
          "name": "id",
          "type": "uint256"
        },
        {
          "indexed": false,
          "internalType": "uint256",
          "name": "dislikes",
          "type": "uint256"
        }
      ],
      "name": "VideoDisliked",
      "type": "event"
    },
    {
      "anonymous": false,
      "inputs": [
        {
          "indexed": false,
          "internalType": "uint256",
          "name": "id",
          "type": "uint256"
        },
        {
          "indexed": false,
          "internalType": "uint256",
          "name": "likes",
          "type": "uint256"
        }
      ],
      "name": "VideoLiked",
      "type": "event"
    },
    {
      "inputs": [
        {
          "internalType": "address",
          "name": "",
          "type": "address"
        },
        {
          "internalType": "uint256",
          "name": "",
          "type": "uint256"
        }
      ],
      "name": "likedUsers",
      "outputs": [
        {
          "internalType": "bool",
          "name": "",
          "type": "bool"
        }
      ],
      "stateMutability": "view",
      "type": "function"
    },
    {
      "inputs": [
        {
          "internalType": "uint256",
          "name": "",
          "type": "uint256"
        }
      ],
      "name": "likes",
      "outputs": [
        {
          "internalType": "uint256",
          "name": "",
          "type": "uint256"
        }
      ],
      "stateMutability": "view",
      "type": "function"
    },
    {
      "inputs": [],
      "name": "videoCount",
      "outputs": [
        {
          "internalType": "uint256",
          "name": "",
          "type": "uint256"
        }
      ],
      "stateMutability": "view",
      "type": "function"
    },
    {
      "inputs": [
        {
          "internalType": "uint256",
          "name": "",
          "type": "uint256"
        }
      ],
      "name": "videos",
      "outputs": [
        {
          "internalType": "string",
          "name": "caption",
          "type": "string"
        },
        {
          "internalType": "string",
          "name": "url",
          "type": "string"
        },
        {
          "internalType": "uint256",
          "name": "likes",
          "type": "uint256"
        },
        {
          "internalType": "uint256",
          "name": "dislikes",
          "type": "uint256"
        },
        {
          "internalType": "address",
          "name": "owner",
          "type": "address"
        }
      ],
      "stateMutability": "view",
      "type": "function"
    },
    {
      "inputs": [
        {
          "internalType": "string",
          "name": "_caption",
          "type": "string"
        },
        {
          "internalType": "string",
          "name": "_url",
          "type": "string"
        }
      ],
      "name": "createVideo",
      "outputs": [],
      "stateMutability": "nonpayable",
      "type": "function"
    },
    {
      "inputs": [
        {
          "internalType": "uint256",
          "name": "_id",
          "type": "uint256"
        }
      ],
      "name": "getLikes",
      "outputs": [
        {
          "internalType": "uint256",
          "name": "",
          "type": "uint256"
        }
      ],
      "stateMutability": "view",
      "type": "function"
    },
    {
      "inputs": [
        {
          "internalType": "uint256",
          "name": "_id",
          "type": "uint256"
        }
      ],
      "name": "likeVideo",
      "outputs": [],
      "stateMutability": "nonpayable",
      "type": "function"
    },
    {
      "inputs": [
        {
          "internalType": "uint256",
          "name": "_id",
          "type": "uint256"
        }
      ],
      "name": "dislikeVideo",
      "outputs": [],
      "stateMutability": "nonpayable",
      "type": "function"
    },
    {
      "inputs": [],
      "name": "getVideoCount",
      "outputs": [
        {
          "internalType": "uint256",
          "name": "",
          "type": "uint256"
        }
      ],
      "stateMutability": "view",
      "type": "function"
    },
    {
      "inputs": [],
      "name": "getVideos",
      "outputs": [
        {
          "components": [
            {
              "internalType": "string",
              "name": "caption",
              "type": "string"
            },
            {
              "internalType": "string",
              "name": "url",
              "type": "string"
            },
            {
              "internalType": "uint256",
              "name": "likes",
              "type": "uint256"
            },
            {
              "internalType": "uint256",
              "name": "dislikes",
              "type": "uint256"
            },
            {
              "internalType": "address",
              "name": "owner",
              "type": "address"
            },
            {
              "internalType": "address[]",
              "name": "likedUsers",
              "type": "address[]"
            }
          ],
          "internalType": "struct Tiktok.Video[]",
          "name": "",
          "type": "tuple[]"
        }
      ],
      "stateMutability": "view",
      "type": "function"
    }
  ],
  "bytecode": "0x608060405234801561001057600080fd5b50611caa806100206000396000f3fe608060405234801561001057600080fd5b506004361061009e5760003560e01c8063a209081e11610066578063a209081e14610145578063a286c0b914610175578063c61b5f4c14610193578063e31c61e4146101b1578063e6821bf5146101e15761009e565b80630746bfe5146100a357806327260d5c146100bf57806368f2d165146100db5780636cbb855d146100f95780637e9dffe614610115575b600080fd5b6100bd60048036038101906100b89190610f4f565b610215565b005b6100d960048036038101906100d49190610f4f565b610482565b005b6100e3610754565b6040516100f09190611264565b60405180910390f35b610113600480360381019061010e91906113bb565b610a3c565b005b61012f600480360381019061012a9190610f4f565b610be6565b60405161013c9190611442565b60405180910390f35b61015f600480360381019061015a9190610f4f565b610bfe565b60405161016c9190611442565b60405180910390f35b61017d610c1b565b60405161018a9190611442565b60405180910390f35b61019b610c25565b6040516101a89190611442565b60405180910390f35b6101cb60048036038101906101c69190611489565b610c2b565b6040516101d891906114e4565b60405180910390f35b6101fb60048036038101906101f69190610f4f565b610c5a565b60405161020c959493929190611558565b60405180910390f35b600115156000803373ffffffffffffffffffffffffffffffffffffffff1673ffffffffffffffffffffffffffffffffffffffff168152602001908152602001600020600083815260200190815260200160002060009054906101000a900460ff161515146102b8576040517f08c379a00000000000000000000000000000000000000000000000000000000081526004016102af90611605565b60405180910390fd5b6000600160008381526020019081526020016000209050600160026000848152602001908152602001600020546102ef9190611654565b600260008481526020019081526020016000208190555060008060003373ffffffffffffffffffffffffffffffffffffffff1673ffffffffffffffffffffffffffffffffffffffff168152602001908152602001600020600084815260200190815260200160002060006101000a81548160ff02191690831515021790555080600160008481526020019081526020016000206000820181600001908161039691906118aa565b50600182018160010190816103ab91906118aa565b5060028201548160020155600382015481600301556004820160009054906101000a900473ffffffffffffffffffffffffffffffffffffffff168160040160006101000a81548173ffffffffffffffffffffffffffffffffffffffff021916908373ffffffffffffffffffffffffffffffffffffffff160217905550600582018160050190805461043d929190610dc0565b509050507fb2c070dc9cfa170a045526a2b9a0378c83f23ab1f2634cfa5627b9006f07b34c828260030154604051610476929190611992565b60405180910390a15050565b6000600160008381526020019081526020016000209050600015156000803373ffffffffffffffffffffffffffffffffffffffff1673ffffffffffffffffffffffffffffffffffffffff168152602001908152602001600020600084815260200190815260200160002060009054906101000a900460ff1615151461053c576040517f08c379a000000000000000000000000000000000000000000000000000000000815260040161053390611a2d565b60405180910390fd5b6001600260008481526020019081526020016000205461055c9190611a4d565b600260008481526020019081526020016000208190555080600501339080600181540180825580915050600190039060005260206000200160009091909190916101000a81548173ffffffffffffffffffffffffffffffffffffffff021916908373ffffffffffffffffffffffffffffffffffffffff16021790555060016000803373ffffffffffffffffffffffffffffffffffffffff1673ffffffffffffffffffffffffffffffffffffffff168152602001908152602001600020600084815260200190815260200160002060006101000a81548160ff02191690831515021790555080600160008481526020019081526020016000206000820181600001908161066891906118aa565b506001820181600101908161067d91906118aa565b5060028201548160020155600382015481600301556004820160009054906101000a900473ffffffffffffffffffffffffffffffffffffffff168160040160006101000a81548173ffffffffffffffffffffffffffffffffffffffff021916908373ffffffffffffffffffffffffffffffffffffffff160217905550600582018160050190805461070f929190610dc0565b509050507f2d800dd6b1c8ddd03a0f158acfe1f793fb8cd08ade2f32715a03a60dff786cc8828260020154604051610748929190611992565b60405180910390a15050565b6060600060035467ffffffffffffffff81111561077457610773611290565b5b6040519080825280602002602001820160405280156107ad57816020015b61079a610e12565b8152602001906001900390816107925790505b50905060005b600354811015610a3457600160006001836107ce9190611a4d565b81526020019081526020016000206040518060c00160405290816000820180546107f7906116b7565b80601f0160208091040260200160405190810160405280929190818152602001828054610823906116b7565b80156108705780601f1061084557610100808354040283529160200191610870565b820191906000526020600020905b81548152906001019060200180831161085357829003601f168201915b50505050508152602001600182018054610889906116b7565b80601f01602080910402602001604051908101604052809291908181526020018280546108b5906116b7565b80156109025780601f106108d757610100808354040283529160200191610902565b820191906000526020600020905b8154815290600101906020018083116108e557829003601f168201915b5050505050815260200160028201548152602001600382015481526020016004820160009054906101000a900473ffffffffffffffffffffffffffffffffffffffff1673ffffffffffffffffffffffffffffffffffffffff1673ffffffffffffffffffffffffffffffffffffffff168152602001600582018054806020026020016040519081016040528092919081815260200182805480156109fa57602002820191906000526020600020905b8160009054906101000a900473ffffffffffffffffffffffffffffffffffffffff1673ffffffffffffffffffffffffffffffffffffffff16815260200190600101908083116109b0575b505050505081525050828281518110610a1657610a15611a81565b5b60200260200101819052508080610a2c90611ab0565b9150506107b3565b508091505090565b60036000815480929190610a4f90611ab0565b91905055506040518060c0016040528083815260200182815260200160008152602001600081526020013373ffffffffffffffffffffffffffffffffffffffff168152602001600067ffffffffffffffff811115610ab057610aaf611290565b5b604051908082528060200260200182016040528015610ade5781602001602082028036833780820191505090505b508152506001600060035481526020019081526020016000206000820151816000019081610b0c9190611af8565b506020820151816001019081610b229190611af8565b50604082015181600201556060820151816003015560808201518160040160006101000a81548173ffffffffffffffffffffffffffffffffffffffff021916908373ffffffffffffffffffffffffffffffffffffffff16021790555060a0820151816005019080519060200190610b9a929190610e5e565b509050507ff90637f53a052b913d9865c8bb1aae7a6d5b1a3b0a0de2dc7ad0cc9d1c906b4e600354838360008033604051610bda96959493929190611c05565b60405180910390a15050565b60026020528060005260406000206000915090505481565b600060026000838152602001908152602001600020549050919050565b6000600354905090565b60035481565b60006020528160005260406000206020528060005260406000206000915091509054906101000a900460ff1681565b6001602052806000526040600020600091509050806000018054610c7d906116b7565b80601f0160208091040260200160405190810160405280929190818152602001828054610ca9906116b7565b8015610cf65780601f10610ccb57610100808354040283529160200191610cf6565b820191906000526020600020905b815481529060010190602001808311610cd957829003601f168201915b505050505090806001018054610d0b906116b7565b80601f0160208091040260200160405190810160405280929190818152602001828054610d37906116b7565b8015610d845780601f10610d5957610100808354040283529160200191610d84565b820191906000526020600020905b815481529060010190602001808311610d6757829003601f168201915b5050505050908060020154908060030154908060040160009054906101000a900473ffffffffffffffffffffffffffffffffffffffff16905085565b828054828255906000526020600020908101928215610e015760005260206000209182015b82811115610e00578254825591600101919060010190610de5565b5b509050610e0e9190610ee8565b5090565b6040518060c0016040528060608152602001606081526020016000815260200160008152602001600073ffffffffffffffffffffffffffffffffffffffff168152602001606081525090565b828054828255906000526020600020908101928215610ed7579160200282015b82811115610ed65782518260006101000a81548173ffffffffffffffffffffffffffffffffffffffff021916908373ffffffffffffffffffffffffffffffffffffffff16021790555091602001919060010190610e7e565b5b509050610ee49190610ee8565b5090565b5b80821115610f01576000816000905550600101610ee9565b5090565b6000604051905090565b600080fd5b600080fd5b6000819050919050565b610f2c81610f19565b8114610f3757600080fd5b50565b600081359050610f4981610f23565b92915050565b600060208284031215610f6557610f64610f0f565b5b6000610f7384828501610f3a565b91505092915050565b600081519050919050565b600082825260208201905092915050565b6000819050602082019050919050565b600081519050919050565b600082825260208201905092915050565b60005b83811015610fe2578082015181840152602081019050610fc7565b60008484015250505050565b6000601f19601f8301169050919050565b600061100a82610fa8565b6110148185610fb3565b9350611024818560208601610fc4565b61102d81610fee565b840191505092915050565b61104181610f19565b82525050565b600073ffffffffffffffffffffffffffffffffffffffff82169050919050565b600061107282611047565b9050919050565b61108281611067565b82525050565b600081519050919050565b600082825260208201905092915050565b6000819050602082019050919050565b60006110c08383611079565b60208301905092915050565b6000602082019050919050565b60006110e482611088565b6110ee8185611093565b93506110f9836110a4565b8060005b8381101561112a57815161111188826110b4565b975061111c836110cc565b9250506001810190506110fd565b5085935050505092915050565b600060c08301600083015184820360008601526111548282610fff565b9150506020830151848203602086015261116e8282610fff565b91505060408301516111836040860182611038565b5060608301516111966060860182611038565b5060808301516111a96080860182611079565b5060a083015184820360a08601526111c182826110d9565b9150508091505092915050565b60006111da8383611137565b905092915050565b6000602082019050919050565b60006111fa82610f7c565b6112048185610f87565b93508360208202850161121685610f98565b8060005b85811015611252578484038952815161123385826111ce565b945061123e836111e2565b925060208a0199505060018101905061121a565b50829750879550505050505092915050565b6000602082019050818103600083015261127e81846111ef565b905092915050565b600080fd5b600080fd5b7f4e487b7100000000000000000000000000000000000000000000000000000000600052604160045260246000fd5b6112c882610fee565b810181811067ffffffffffffffff821117156112e7576112e6611290565b5b80604052505050565b60006112fa610f05565b905061130682826112bf565b919050565b600067ffffffffffffffff82111561132657611325611290565b5b61132f82610fee565b9050602081019050919050565b82818337600083830152505050565b600061135e6113598461130b565b6112f0565b90508281526020810184848401111561137a5761137961128b565b5b61138584828561133c565b509392505050565b600082601f8301126113a2576113a1611286565b5b81356113b284826020860161134b565b91505092915050565b600080604083850312156113d2576113d1610f0f565b5b600083013567ffffffffffffffff8111156113f0576113ef610f14565b5b6113fc8582860161138d565b925050602083013567ffffffffffffffff81111561141d5761141c610f14565b5b6114298582860161138d565b9150509250929050565b61143c81610f19565b82525050565b60006020820190506114576000830184611433565b92915050565b61146681611067565b811461147157600080fd5b50565b6000813590506114838161145d565b92915050565b600080604083850312156114a05761149f610f0f565b5b60006114ae85828601611474565b92505060206114bf85828601610f3a565b9150509250929050565b60008115159050919050565b6114de816114c9565b82525050565b60006020820190506114f960008301846114d5565b92915050565b600082825260208201905092915050565b600061151b82610fa8565b61152581856114ff565b9350611535818560208601610fc4565b61153e81610fee565b840191505092915050565b61155281611067565b82525050565b600060a08201905081810360008301526115728188611510565b905081810360208301526115868187611510565b90506115956040830186611433565b6115a26060830185611433565b6115af6080830184611549565b9695505050505050565b7f596f75206d757374206c696b652074686520766964656f206669727374000000600082015250565b60006115ef601d836114ff565b91506115fa826115b9565b602082019050919050565b6000602082019050818103600083015261161e816115e2565b9050919050565b7f4e487b7100000000000000000000000000000000000000000000000000000000600052601160045260246000fd5b600061165f82610f19565b915061166a83610f19565b925082820390508181111561168257611681611625565b5b92915050565b7f4e487b7100000000000000000000000000000000000000000000000000000000600052602260045260246000fd5b600060028204905060018216806116cf57607f821691505b6020821081036116e2576116e1611688565b5b50919050565b6000815490506116f7816116b7565b9050919050565b60008190508160005260206000209050919050565b60006020601f8301049050919050565b600082821b905092915050565b6000600883026117607fffffffffffffffffffffffffffffffffffffffffffffffffffffffffffffffff82611723565b61176a8683611723565b95508019841693508086168417925050509392505050565b6000819050919050565b60006117a76117a261179d84610f19565b611782565b610f19565b9050919050565b6000819050919050565b6117c18361178c565b6117d56117cd826117ae565b848454611730565b825550505050565b600090565b6117ea6117dd565b6117f58184846117b8565b505050565b5b818110156118195761180e6000826117e2565b6001810190506117fb565b5050565b601f82111561185e5761182f816116fe565b61183884611713565b81016020851015611847578190505b61185b61185385611713565b8301826117fa565b50505b505050565b600082821c905092915050565b600061188160001984600802611863565b1980831691505092915050565b600061189a8383611870565b9150826002028217905092915050565b8181036118b8575050611990565b6118c1826116e8565b67ffffffffffffffff8111156118da576118d9611290565b5b6118e482546116b7565b6118ef82828561181d565b6000601f83116001811461191e576000841561190c578287015490505b611916858261188e565b865550611989565b601f19841661192c876116fe565b9650611937866116fe565b60005b8281101561195f5784890154825560018201915060018501945060208101905061193a565b8683101561197c5784890154611978601f891682611870565b8355505b6001600288020188555050505b5050505050505b565b60006040820190506119a76000830185611433565b6119b46020830184611433565b9392505050565b7f596f75206861766520616c7265616479206c696b65642074686973207669646560008201527f6f00000000000000000000000000000000000000000000000000000000000000602082015250565b6000611a176021836114ff565b9150611a22826119bb565b604082019050919050565b60006020820190508181036000830152611a4681611a0a565b9050919050565b6000611a5882610f19565b9150611a6383610f19565b9250828201905080821115611a7b57611a7a611625565b5b92915050565b7f4e487b7100000000000000000000000000000000000000000000000000000000600052603260045260246000fd5b6000611abb82610f19565b91507fffffffffffffffffffffffffffffffffffffffffffffffffffffffffffffffff8203611aed57611aec611625565b5b600182019050919050565b611b0182610fa8565b67ffffffffffffffff811115611b1a57611b19611290565b5b611b2482546116b7565b611b2f82828561181d565b600060209050601f831160018114611b625760008415611b50578287015190505b611b5a858261188e565b865550611bc2565b601f198416611b70866116fe565b60005b82811015611b9857848901518255600182019150602085019450602081019050611b73565b86831015611bb55784890151611bb1601f891682611870565b8355505b6001600288020188555050505b505050505050565b6000819050919050565b6000611bef611bea611be584611bca565b611782565b610f19565b9050919050565b611bff81611bd4565b82525050565b600060c082019050611c1a6000830189611433565b8181036020830152611c2c8188611510565b90508181036040830152611c408187611510565b9050611c4f6060830186611bf6565b611c5c6080830185611bf6565b611c6960a0830184611549565b97965050505050505056fea2646970667358221220d60e15f73b536623bfac685a003d0277122e76afc3f9816803bdf60a129d2d0164736f6c63430008100033",
  "immutableReferences": {},
  "source": "// SPDX-License-Identifier: MIT\npragma solidity ^0.8.16;\n\ncontract Tiktok {\n    struct Video {\n        string caption;\n        string url;\n        uint256 likes;\n        uint256 dislikes;\n        address owner;\n        address[] likedUsers;\n    }\n\n    // map through the likedUsers array\n    mapping(address => mapping(uint256 => bool)) public likedUsers;\n    mapping(uint256 => Video) public videos;\n    // Store the number of likes for each video\n    mapping(uint256 => uint256) public likes;\n    uint256 public videoCount;\n\n    event VideoCreated(\n        uint256 id,\n        string caption,\n        string url,\n        uint256 likes,\n        uint256 dislikes,\n        address owner\n    );\n\n    event VideoLiked(uint256 id, uint256 likes);\n    event VideoDisliked(uint256 id, uint256 dislikes);\n\n    function createVideo(string memory _caption, string memory _url) public {\n        videoCount++;\n        videos[videoCount] = Video(\n            _caption,\n            _url,\n            0,\n            0,\n            msg.sender,\n            new address[](0)\n        );\n\n        emit VideoCreated(videoCount, _caption, _url, 0, 0, msg.sender);\n    }\n\n    // Get the number of likes for a Video from mapping\n    function getLikes(uint256 _id) public view returns (uint256) {\n        return likes[_id];\n    }\n\n\n\n\n    function likeVideo(uint256 _id) public {\n        Video storage _video = videos[_id];\n        require(\n            likedUsers[msg.sender][_id] == false,\n            \"You have already liked this video\"\n        );\n        // Increment likes in mapping\n        likes[_id] = likes[_id] + 1;\n        // Add the user to the likedUsers array\n        _video.likedUsers.push(msg.sender);\n\n        //Set the user to true in the mapping\n        likedUsers[msg.sender][_id] = true;\n        videos[_id] = _video;\n        emit VideoLiked(_id, _video.likes);\n    }\n\n    function dislikeVideo(uint256 _id) public {\n        require(\n            likedUsers[msg.sender][_id] == true,\n            \"You must like the video first\"\n        );\n        Video storage _video = videos[_id];\n\n        // Decrement likes in mapping\n        likes[_id] = likes[_id] - 1;\n\n        // Set the user to false in the likedUsers mapping\n        likedUsers[msg.sender][_id] = false;\n\n        videos[_id] = _video;\n        emit VideoDisliked(_id, _video.dislikes);\n    }\n\n    function getVideoCount() public view returns (uint256) {\n        return videoCount;\n    }\n\n    // Get all videos\n    function getVideos() public view returns (Video[] memory) {\n        Video[] memory _videos = new Video[](videoCount);\n        for (uint256 i = 0; i < videoCount; i++) {\n            _videos[i] = videos[i + 1];\n        }\n        return _videos;\n    }\n}\n",
  "sourcePath": "/Users/kevin/github/bts-tiktok-infura/contracts/Tiktok.sol",
  "compiler": {
    "name": "solc",
    "version": "0.8.16+commit.07a7930e.Emscripten.clang"
  },
  "schemaVersion": "3.4.9",
  "updatedAt": "2022-09-10T04:08:23.922Z",
  "devdoc": {
    "kind": "dev",
    "methods": {},
    "version": 1
  },
  "userdoc": {
    "kind": "user",
    "methods": {},
    "version": 1
  }
}